:020000040800F2
:1000000018B90020F55C0008319501081195010828
:100010002195010841950108519501080000000053
:10002000000000000000000000000000555D000816
:10003000555D000800000000555D0008555D000892
:10004000555D0008555D0008555D0008555D0008C8
:10005000555D0008555D0008555D0008555D0008B8
:10006000555D0008555D0008555D0008555D0008A8
:10007000555D0008555D0008555D0008555D000898
:10008000555D0008555D0008555D0008555D000888
:10009000555D0008555D0008555D0008555D000878
:1000A000555D0008555D0008555D0008555D000868
:1000B000D5950108555D0008555D0008555D00089F
:1000C000555D0008555D0008555D0008555D000848
:1000D000555D0008555D0008555D0008555D000838
:1000E000555D0008555D0008555D0008555D000828
:1000F000555D0008555D0008555D0008555D000818
:10010000555D0008555D0008555D0008555D000807
:10011000555D0008555D0008555D0008555D0008F7
:10012000555D0008555D0008555D0008555D0008E7
:100130005FF808F110B5054C237833B9044B13B1BF
:100140000448AFF300800123237010BD4C0A002047
:1001500000000000E468020808B5034B1BB1034926
:100160000348AFF3008008BD00000000500A0020E3
:10017000E468020890B585B000AF04460846114611
:100180001A462346FB710346BB710B46BB801346E0
:10019000FB70FB79042B02D94FF0FF33E2E0BB790F
:1001A000013B042B19D801A252F823F0C101000829
:1001B000E1010008E1010008E1010008E101000897
:1001C00007F10C03042219460F2015F0B1FCFB685F
:1001D000002B05D16FF00203C4E06FF00403C1E00F
:1001E00000BFFB7803F00403002B02D06FF005037F
:1001F000B8E0FB78002B19D0BB79012B02D0022B81
:1002000008D018E0FB7803F02103002B10D16FF029
:100210000503A7E0FB7803F02003002B0AD097F931
:100220000330002B06DB6FF005039BE000BF02E00C
:1002300000BF00E000BFFB79184600F0A1F8FB7991
:1002400004331B02184697F9033023F00F035AB208
:1002500097F9063013435BB2DBB2194615F0ACFBDD
:10026000BB88002B10D1414B1B885A1C91B23F4ACE
:100270001180BB803D4B1B884FF6F072934203D137
:100280003A4B4FF440421A80FB7904331B0204338B
:100290001A46BB881B0A9BB2DBB21946104615F002
:1002A0008BFBFB7904331B0205331A46BB88DBB298
:1002B0001946104615F080FBFB7904331B0201330D
:1002C0000121184615F078FB00BFFB7904331B02AF
:1002D0000133184615F0A4FB0346002BF5D1FB793A
:1002E000012202FA03F31BB2DB431AB2204B1B8834
:1002F0001BB213401BB29AB21D4B1A80FB7803F05D
:100300000102FB7902FA03F31AB2194B1B881BB2E4
:1003100013431BB29AB2164B1A80FB79012202FAE0
:1003200003F31BB2DB431AB2124B1B881BB2134000
:100330001BB29AB20F4B1A80FB790F4A002122F8A8
:100340001310FB790D4A0021D15400BFFB7904330F
:100350001B020333184615F063FB0346002BF5D050
:1003600097F9073018461437BD4690BD00000020AD
:10037000680A00206A0A00206C0A0020740A002023
:1003800080B582B000AF0346FB71FB79042B02D924
:100390004FF0FF334DE0FB7904331B020133102192
:1003A000184615F009FB00BFFB7904331B0201332B
:1003B000184615F035FB0346002BF5D1FB790433C5
:1003C0001B020233FF21184615F0F6FAFB790122D1
:1003D00002FA03F31BB2DB431AB2184B1B881BB2A1
:1003E00013401BB29AB2154B1A80FB79012202FA14
:1003F00003F31BB2DB431AB2114B1B881BB2134031
:100400001BB29AB20E4B1A80FB790E4A002122F8D9
:100410001310FB790C4A0021D15400BFFB7904333F
:100420001B020333184615F0FBFA0346002BF5D1E7
:10043000012318460837BD4680BD00BF680A00206A
:100440006A0A00206C0A0020740A002080B584B07B
:1004500000AF03463960FB711346BB80FB79042B68
:1004600002D94FF0FF33B1E0FB7904331B02184689
:1004700015F0D6FA034603F00F03012B02D06FF0FC
:100480000403A3E0FB7904331B020333184615F081
:10049000C7FA0346132B02D06FF0020396E03B68C5
:1004A0001B78FB60FB681B023A6801321278134428
:1004B000FB60FB681B023A68023212781344FB604F
:1004C000FB681B023A68033212781344FB60FB6836
:1004D000B3F1FF3F02D0FB68002B02D16FF00B039A
:1004E00074E0BB88002B02D16FF00A036EE0FB7949
:1004F00004331B020C3304223968184615F0C2FA83
:10050000FB7904331B0210331A46BB881B0A9BB2CB
:10051000DBB21946104615F04FFAFB7904331B0283
:1005200011331A46BB88DBB21946104615F044FA5F
:10053000FB7904331B0201330421184615F03CFA01
:1005400000BFFB7904331B020133184615F068FA2B
:100550000346002BF5D11F4B1B881A46FB7942FA44
:1005600003F303F00103002B25D000232EE0FB79D9
:1005700004331B020233184615F052FA034603F007
:100580000803002B0AD0FB7904331B020233082135
:10059000184615F011FA6FF00C0317E0FB790433DD
:1005A0001B020333184615F03BFA0346002B02D119
:1005B0006FF003030AE0FB7904331B020333184690
:1005C00015F02EFA0346172BD1D101231846103708
:1005D000BD4680BD680A002080B584B000AF0346E8
:1005E0003960FB711346BB800023FB730023BB8182
:1005F000FB79042B02D94FF0FF33D8E0FB790433A9
:100600001B02184615F00CFA034603F00F03012BEA
:1006100002D06FF00403CAE0BB88002B02D16FF058
:100620000D03C4E0FB7904331B020333184615F0B5
:10063000F7F90346FB73FB7B172B05D0FB7B1C2BC9
:1006400002D06FF00603B2E05B4B1B881A46FB79C1
:1006500042FA03F303F00103002B33D0FB79043398
:100660001B020233184615F0DBF90346FB73FB7BD4
:1006700003F01003002B17D0FB7904331B02023365
:100680001021184615F098F9FB79012202FA03F3BC
:100690001BB2DB431AB2484B1B881BB213401BB280
:1006A0009AB2454B1A800DE0FB7B03F00803002B48
:1006B00006D0FB791846FFF763FE6FF00C0376E077
:1006C000002374E01B2015F0ABF903461946FB79B3
:1006D0005B00032202FA03F301EA0302FB795B00E9
:1006E00042FA03F3012202FA03F39BB29B02BB819D
:1006F000BA88BB899A4201D9BB89BB80FB7918466D
:1007000015F06CFA0346BB81FB7904331B020333FB
:10071000184615F085F90346FB73FB7B172B09D0B0
:10072000FB7B1C2B06D0FB791846FFF729FE6FF0E8
:1007300006033CE0214B1B881A46FB7942FA03F37F
:1007400003F00103002B05D0BA88BB899A4201D976
:1007500000232CE0BA88BB899A4200D9CEE700BFBB
:10076000BA88FB793968184615F02AFBFB790433FF
:100770001B0201332021184615F01EF900BFFB793A
:1007800004331B020133184615F04AF90346002BC7
:10079000F5D1FB79012202FA03F31AB2064B1B884A
:1007A0001BB213431BB29AB2034B1A80BB88184684
:1007B0001037BD4680BD00BF6A0A0020680A0020CD
:1007C00090B585B000AF03463960FB711346BB801E
:1007D0000023FB730023BB81FB79042B02D94FF06C
:1007E000FF33A8E0FB7904331B02184615F018F913
:1007F000034603F00F03012B02D06FF004039AE0CD
:10080000BB88002B02D16FF00D0394E01A2015F085
:1008100007F903461946FB795B00032202FA03F34A
:1008200001EA0302FB795B0042FA03F3012202FAB8
:1008300003F39BB29B02BB81BA89BB889A4201D267
:10084000BB89BB80FB79184615F00BFA0346BB81C8
:10085000FB7904331B020333184615F0E1F8034615
:10086000FB73FB7B172B30D0FB7B1C2B26D1BB896A
:10087000002B3DD1FB79184615F0B0F903461C4614
:100880001B2015F0CDF803461946FB795B000322C7
:1008900002FA03F301EA0302FB795B0042FA03F375
:1008A000012202FA03F39BB29B029C420DD1FB7919
:1008B0001846FFF765FD6FF006033CE0FB7918462C
:1008C000FFF75EFD6FF0060335E01D4B1B881A46EF
:1008D000FB7942FA03F303F00103002B04D0BB8938
:1008E000002B01D1002326E0BB89002B02D1A9E710
:1008F00000BF00E000BFBA89BB889A4201D2BB8921
:10090000BB80BA88FB793968184615F012FBFB7971
:1009100004331B0201334021184615F04DF800BF87
:10092000FB7904331B020133184615F079F80346AE
:10093000002BF5D1BB8818461437BD4690BD00BFCB
:10094000680A002080B485B000AF786039607B68A9
:10095000FB6004E0FB685A1CFA6000221A703B68D6
:100960005A1E3A60002BF5D100BF1437BD4680BC3B
:10097000704780B582B000AF78607B68002B0FD0E5
:100980007B681B68002B0BD07B681B689B6A7A68AE
:1009900052681046984708217868FFF7D3FF00E0B7
:1009A00000BF0837BD4680BD80B483B000AF0346AA
:1009B000FB71FB79012B01D1034B00E000231846AA
:1009C0000C37BD4680BC7047B826020880B582B09F
:1009D00000AF786039607B68002B06D03B68002B45
:1009E00003D07B681B68002B01D00B4B0FE03B68EA
:1009F0005B6A984702467B685A607B685B68002B9D
:100A000001D1064B03E07B683A681A600023184660
:100A10000837BD4680BD00BF80C1FFFF80C0FFFF1B
:100A200080B582B000AF78600B46FB707B68002B0E
:100A300003D07B681B68002B01D1002306E07B6894
:100A40001B68DB68FA781046984703461846083753
:100A5000BD4680BD80B584B000AF03463960FB71F0
:100A60003B681B68002B01D0002312E0FB7918467D
:100A700004F036FEF860FB68002B02D14FF0FF3324
:100A800007E0F86805F06AF803461A463B681A6002
:100A9000002318461037BD4680BD000090B587B0D2
:100AA00002AFF8607A603B600B46FB72FB68002B7C
:100AB0000CD0FB681B68002B08D03A46FB7A114625
:100AC0001846FFF7C7FF0346002B01D00D4B15E07A
:100AD000FB681B681B69002B01D10B4B0EE0FB6808
:100AE0001B681C69FB6858683A68F97A7B6A01934D
:100AF0003B6A009313467A68A047034618461437AA
:100B0000BD4690BD80C1FFFF00C1FFFF80B586B02C
:100B100002AFB9607A601A460346FB731346BB7393
:100B20007B68002B03D07B681B68002B01D1124B24
:100B30001EE0FB7B19467868FFF772FF0346002B27
:100B400001D10E4B14E0FB7B062B01D10C4B0FE0C7
:100B5000BB68002B01D0084B0AE0B97B7B6A01938C
:100B60003B6A0093FB69BA697868FFF797FF034611
:100B700018461037BD4680BD80C1FFFF00C1FFFF92
:100B800080C6FFFF90B589B004AFF8607A603B6023
:100B90000B46FB72FB68002B0CD0FB681B68002B1C
:100BA00008D03A46FB7A11461846FFF753FF034632
:100BB000002B01D00F4B19E0FB681B685B69002B11
:100BC00001D10D4B12E0FB681B685C69FB6858683B
:100BD0003A68F97AFB6A0393BB6A02937B6A0193D2
:100BE0003B6A009313467A68A047034618461437B9
:100BF000BD4690BD80C1FFFF00C1FFFF90B589B029
:100C000004AFF860B9607A603B60FB68002B03D0EA
:100C1000FB681B68002B01D10F4B18E0FB681B68B9
:100C2000DB69002B01D10D4B11E0FB681B68DC690F
:100C3000FB685868FB6A0393BB6A02937B6A019363
:100C40003B6A00933B687A68B968A0470346184638
:100C50001437BD4690BD00BF80C1FFFF00C1FFFF3C
:100C600080B582B000AF78607B68002B03D07B68D2
:100C70001B68002B01D1002307E07B681B689B6881
:100C80007A68526810469847034618460837BD46AA
:100C900080BD000080B582B000AF786039607B68AD
:100CA000002B03D07B681B68002B01D10A4B0FE09F
:100CB0007B681B68DB6A002B01D1084B08E07B686E
:100CC0001B68DB6A7A6852683968104698470023C7
:100CD00018460837BD4680BD80C1FFFF00C1FFFF39
:100CE00080B483B000AF78607B68002B03D07B6852
:100CF0001B68002B01D1054B02E07B681B685B6819
:100D000018460C37BD4680BC704700BFD00A0208A9
:100D100080B483B000AF78607B68002B03D07B6821
:100D20001B68002B01D1002302E07B681B681B7845
:100D300018460C37BD4680BC704780B483B000AF06
:100D40003B4683E803007B6818460C37BD4680BCF1
:100D50007047000080B58EB008AFF860B9607A6067
:100D600007F110023023B968F86814F095FB786138
:100D70007B69002B03D07B69A3F56C537EE0FB6895
:100D80001A683B691344BA689A4201D03D4B75E03A
:100D900007F110020223B968F86814F07DFB78614E
:100DA0007B69002B03D07B69A3F56C5366E0FB687D
:100DB00019683A69002306930023059300230493DE
:100DC0000023039300230293002301930023009345
:100DD0000023786817F002F878617B69002B01D056
:100DE000294B4BE0FB681A683B691A44FB681A60A0
:100DF00007F110020223B968F86814F04DFB78611E
:100E00007B69002B03D07B69A3F56C5336E0FB684C
:100E10001B683A6906920593002304930023039309
:100E20000023029300230193002300930023002258
:100E30000021786816F0D2FF78617B69002B01D021
:100E4000114B1BE0FB681A683B691A44FB681A6087
:100E5000786817F0BBF80346002B05D1786817F0C7
:100E60000FFA0346002B01D0074B07E0FB681B6815
:100E7000BA689A4201D0034B00E0002318461837A5
:100E8000BD4680BD9AC4FFFF00C5FFFF80B588B096
:100E900000AFF860B9607A603B600C2200213868CE
:100EA00019F048FA07F110023B68B968F86814F0C5
:100EB00062FCF861FB69002B03D0FB69A3F56A5360
:100EC0001DE007F11003796818460EF031FD034666
:100ED000002B01D00C4B12E07B681B78012B0DD14D
:100EE0003B681B68052B03D03B681B68002B03D1B4
:100EF0003B685B68002B01D0044B00E000231846E0
:100F00002037BD4680BD00BF80C3FFFF80C5FFFF07
:100F100080B58CB000AFF860B9607A600023FB75D3
:100F200007F124023023B968F86814F0B5FAF862C2
:100F3000FB6A002B03D0FB6AA3F5745361E0FB68E6
:100F40001A687B6A1344BB6007F1180307F11702A4
:100F5000B968F868FFF79AFFF862FB6A002B01D0C6
:100F6000FB6A4EE007F124031A46B968F86814F0EA
:100F70006FFBF862FB6A002B03D0FB6AA3F56C538E
:100F80003FE0FB681A687B6A1344BA689A4201D052
:100F90001E4B36E0FB7D1846FFF706FDB862BB6AC4
:100FA000002B01D11A4B2CE0B96A7868FFF70EFDCF
:100FB000F862FB6A002B01D0FB6A22E0FB7D012B6B
:100FC0000CD17B6893E80300FFF7B7FE03461A468F
:100FD000B968F868FFF7BEFEF86201E00C4BFB62EF
:100FE000FB6A002B06D1FB681B68BA689A4201D0E5
:100FF000064BFB62FB6A002B02D07868FFF7B9FC56
:10100000FB6A18463037BD4680BD00BF9AC4FFFF5B
:1010100080C3FFFF80B485B000AF786039600023E3
:10102000FB817B681B88FB817B682E4A934213D02F
:101030007B682D4A93420FD07B68B3F1804F0BD071
:101040007B682A4A934207D07B68294A934203D09F
:101050007B68284A934208D1FB8923F07003FB8107
:101060003B685A88FB891343FB817B68224A934281
:101070000CD07B68214A934208D0FB8923F440734B
:10108000FB813B68DA88FB891343FB817B68FA8923
:101090001A803B689A887B689A853B681A887B68C7
:1010A0001A857B680F4A93420FD07B680E4A9342A1
:1010B0000BD07B68124A934207D07B68114A934257
:1010C00003D07B68104A934204D13B681B7A9AB2E2
:1010D0007B681A867B6801229A8200BF1437BD465E
:1010E00080BC7047002C01400034014000040040E7
:1010F00000080040000C00400010004000140040B8
:1011000000400140004401400048014080B483B0E9
:1011100000AF78600B46FB70FB78002B08D07B6833
:101120001B889BB243F001039AB27B681A8007E0E8
:101130007B681B889BB223F001039AB27B681A80FC
:1011400000BF0C37BD4680BC704780B483B000AF91
:1011500078600B467B8013467B707B78002B08D031
:101160007B689B899AB27B8813439AB27B689A8189
:1011700009E07B689B899AB27B88DB439BB2134072
:101180009AB27B689A8100BF0C37BD4680BC70471D
:1011900080B483B000AF78600B467B807B687A8830
:1011A0009A8500BF0C37BD4680BC704780B483B0C1
:1011B00000AF78600B467B807B88DB439AB27B680C
:1011C0001A8200BF0C37BD4680BC704780B483B024
:1011D00000AF78607B68002B03D07B681B68002B16
:1011E00001D1002302E07B681B685B7818460C374E
:1011F000BD4680BC704780B582B000AF78600021EA
:10120000786804F0E7F900BF0837BD4680BD80B4B8
:1012100085B000AF78607B681B6B002B09D07B68C2
:101220001B6B5B68002B04D07B681B6B5B68FB60EF
:1012300003E07B681B689B6BFB60FB68002B02D0A4
:10124000FB681B6800E0002318461437BD4680BCCD
:10125000704780B483B000AF7860052318460C3720
:10126000BD4680BC704780B483B000AF7860042373
:1012700018460C37BD4680BC704780B489B000AFBB
:10128000F860B9607A60FB68BB61BB687B61002372
:10129000FB740023FB6116E0BA69FB6913441B78F9
:1012A000DAB27969FB690B441B78DBB25340DBB2DD
:1012B0005AB2FB7CDBB25BB213435BB2DBB2FB74B2
:1012C000FB690133FB61FA697B689A42E4D3FB7CDA
:1012D000DBB218462437BD4680BC704780B485B069
:1012E00000AF786039607B68FB6004E0FB685A1CE3
:1012F000FA6000221A703B685A1E3A60002BF5D142
:1013000000BF1437BD4680BC704780B483B000AFC7
:101310007860002318460C37BD4680BC704700003B
:1013200080B584B002AF786039607B689B6C002B1D
:1013300012D03B6801930A4B00935223094A0321C0
:10134000786814F023FF7B689B6C7A68506C3A686D
:1013500091083A68984700E000BF0837BD4680BD55
:10136000680B0208DC0A020880B584B002AF78601E
:101370007B68DB6C002B01D1002314E07B68DB6C05
:101380007A68526C104698470346022B0AD1084BE4
:1013900000936023074A0321786814F0F7FE4FF0AA
:1013A000FF3300E0002318460837BD4680BD00BF6C
:1013B0007C0B0208DC0A020880B5B6B000AFB96049
:1013C0007A603B600346FB7307F11003184604F094
:1013D000A1F9FB7B184604F083F9C7F8CC00D7F8D5
:1013E000CC30002B01D17B4BEFE0D7F8CC0004F0E0
:1013F000B5FB0346C7F8C830386819F091F90246C2
:10140000D7F8C8301A44D7F8E4301344802B01D9F8
:10141000714BDAE0386819F083F9C7F8C40007F1B6
:101420003C02D7F8C8301344D7F8C42039681846AE
:1014300018F0A8FED7F8C820D7F8C430134407F135
:101440003C021344D7F8E420D7F8E010184618F00F
:1014500099FED7F8C420D7F8E4301344C7F8C43055
:1014600007F110030122D7F8CC10184604F092F9C6
:10147000C7F8C000D7F8C030002B02D0D7F8C03072
:10148000A3E007F110037A68B968184604F0DCF9A4
:1014900007F13C02D7F8C830D11807F11003D7F88C
:1014A000C420184604F082FA07F13C0207F1100349
:1014B0001146184604F09CFA0023C7F8D4306CE0BB
:1014C00007F11003184604F0F9FAD7F8C820D7F846
:1014D000C4301A4407F13C0107F11003184604F028
:1014E00065FA07F11C0207F110031146184604F0D3
:1014F0007FFA07F11003184604F0E0FA07F13C0107
:1015000007F11003D7F8C820184604F04FFA07F186
:101510003C0207F110031146184604F069FAD7F8A7
:10152000D420D7F8C8301344D7F8EC209A420BD215
:10153000D7F8EC30D7F8C820B3FBF2F2D7F8C810D0
:1015400001FB02F29B1A01E0D7F8C830C7F8BC30A3
:101550000023C7F8D03013E0D7F8D420D7F8D03024
:101560001344D7F8E820134407F11C01D7F8D02022
:101570000A4412781A70D7F8D0300133C7F8D03047
:10158000D7F8D020D7F8BC309A42E5D3D7F8D4208A
:10159000D7F8C8301344C7F8D430D7F8D420D7F8D8
:1015A000EC309A428CD307F11003184604F0BFF8D0
:1015B00007F13C0380211846FFF790FE07F11C035A
:1015C00020211846FFF78AFE00231846D837BD466B
:1015D00080BD00BF0094FFFF008FFFFF80B588B083
:1015E00004AFF860B9607A603B603B6A0393FB69C3
:1015F0000293BB6901933B6800937B68BA68F96802
:101600000620FFF7D9FE034618461037BD4680BDB9
:10161000F0B5E5B006AF3B1D18600023C7F8743184
:101620003B1D1B68DB6AC7F86C313B1D1B681B6CDC
:10163000C7F868313B1D1B681B6BC7F86431381D48
:101640008D4B009340F201238C4A0221006814F074
:101650009DFDD7F868311B681B7A184604F0C6FB5D
:10166000C7F86001D7F86031002B10D1D7F8683186
:101670001B681B7A381D0193814B009340F20723AE
:101680007E4A0121006814F081FD7E4BA0E3D7F86B
:1016900068311B685B7A184604F022F8C7F85C01D1
:1016A000D7F85C31002B10D1D7F868311B685B7A12
:1016B000381D0193744B009340F20F236F4A0121B0
:1016C000006814F063FD6F4B82E33B1D1B68DB6811
:1016D000032B13D1D7F864316C4AC3F88020D7F8B4
:1016E00064316B4A9A67D7F864316A4ADA67D7F887
:1016F0006431D3F8F830002B58D10BE0381D664B1D
:10170000009340F23E235D4A0121006814F03EFD43
:10171000624B5DE3D7F86431C833D7F86421D2F85F
:101720008420381D029201935D4B009340F24F23B9
:10173000524A0321006814F0E1FDD7F86431D3F870
:101740008040D7F8643103F1C800D7F86431D3F88A
:101750008410D7F8643103F18805D7F86C312C3345
:10176000302202920193402300932B464D4AA0471A
:10177000C7F87401D7F87431002B0FD0381DD7F893
:1017800074310193484B009340F281233B4A01217D
:10179000006814F061FDD7F8743119E3D7F86431AB
:1017A000C83330211846FFF799FD09E0381D3F4B3B
:1017B00000934FF42273314A0321006814F0E6FCD1
:1017C000D7F8643188331C4607F5847604F1400C61
:1017D00035462346186859689A68DB680FC5103487
:1017E00010366445F4D1D7F8643103F1880007F569
:1017F000847320332022194618F0C4FCD7F86431D2
:101800008833203307F584712022184618F0BAFC7B
:1018100007F5847340211846FFF760FDD7F864315F
:10182000D3F88040D7F86C3103F12C00D7F864313D
:1018300003F188024FF48073029307F108030193C8
:101840004023009313461A4A3021A047C7F8740179
:10185000D7F87431002B2DD0381DD7F8743101938F
:10186000114B009340F2A223044A0121006814F0B6
:10187000F3FCD7F87431ABE28C0B0208DC0A0208E7
:101880009C0B0208008FFFFFBC0B0208DD1500084F
:10189000F91D0008E9440008E00B02080094FFFF6E
:1018A000F40B0208080C0208180C02081C0C0208B1
:1018B0003C0C0208D7F86C311B6818460EF0A2F8F1
:1018C0000346381D0193BF4B009340F2A723BE4A45
:1018D0000321006814F05AFCD7F86C312C33381D02
:1018E000302202920193B94B00934FF42A73B64A07
:1018F0000321006814F002FDD7F864318833381DE5
:10190000402202920193B24B009340F2A923AE4AC7
:101910000421006814F0F2FC381D4FF48073029328
:1019200007F108030193AB4B009340F2AA23A64AA8
:101930000421006814F0E2FCD7F8643188334021B8
:101940001846FFF7CBFCD7F860315B68DA08D7F8A8
:1019500068315A60D7F860315B78062B04D0D7F82D
:1019600060315B78082B25D1D7F8683100225A61A5
:101970000023C7F87031D7F868310C22DA60D7F845
:10198000683104221A61D7F86831DA68D7F868310B
:101990001B69D31AD7F868211268127F02F002027D
:1019A000002A01D0082200E010221A44D7F868313A
:1019B0009A6082E0D7F8683138330122D7F85C1199
:1019C000184603F0E7FEC7F87401D7F87431002B0E
:1019D0000ED1D7F8683144330122D7F85C1118468C
:1019E00003F0D8FEC7F87401D7F87431002B0FD07C
:1019F000381DD7F874310193774B00934FF432734D
:101A0000714A0121006814F027FCD7F87431DFE136
:101A1000D7F85C0104F0A2F80346C7F87031D7F894
:101A20006831D7F870215A61D7F86031DA68D7F891
:101A30006831DA60D7F860315B78072B06D1D7F8C8
:101A400068315A69D7F868319A6036E0D7F868315A
:101A50005A69D7F860315B69D118D7F868315B698A
:101A6000D7F860215269B3FBF2F002FB00F29B1A37
:101A7000CA1AD7F868319A603B1D1B68DB68022BD5
:101A800004D03B1D1B68DB68032B0AD1D7F86831F3
:101A90009A68D7F86831DB681A44D7F868319A60D9
:101AA0000BE0381D4D4B009340F20E33464A0121A6
:101AB000006814F06BFB4A4B8AE1D7F868315B6829
:101AC000D7F868219268D7F86811C968D7F8680113
:101AD0004469381D0494039102920193414B009391
:101AE00040F21633384A0321006814F04FFB3B1DC7
:101AF0001B681B6893F8503003F00103DBB2002B26
:101B000053D1D7F870315B0007F108021344C7F8CE
:101B10005831D7F870315A00D7F868315B681344F0
:101B200007F108021344C7F8543107F10803C7F856
:101B3000503107F10802D7F870311344C7F84C311F
:101B4000D7F868311B69002B03D0D7F868311B69BF
:101B500002E0D7F86831DB68C7F84831D7F8683158
:101B600003F11800D7F868315B68D7F854211344A3
:101B7000D7F84821194618F005FBD7F8683103F16A
:101B80002800D7F868315A68D7F848311344D7F895
:101B900054211344D7F84821194618F0F3FA3B1D95
:101BA0001B68DB68002B42DD1EE0381D0B4B0093E9
:101BB0004FF45173044A0121006814F0E7FA084B0E
:101BC00006E100BF4C0C0208DC0A0208080C0208FF
:101BD000600C0208700C02087C0C0208E00B020882
:101BE0000094FFFF900C0208D7F868313833D7F81B
:101BF0007021D7F85011184603F026FED7F8683147
:101C00004433D7F87021D7F84C11184603F01CFE66
:101C1000D7F868315033D7F86011184604F060F9EE
:101C2000C7F87401D7F87431002B1CD00BE0381DB5
:101C30006A4B00934FF45873694A0121006814F00D
:101C4000A5FA684BC4E0381DD7F874310193664B90
:101C500000934FF46173624A0121006814F0FCFAAA
:101C6000D7F87431B4E0D7F868319033D7F8601101
:101C7000184604F035F9C7F87401D7F87431002B11
:101C80000FD0381DD7F874310193574B009340F2B1
:101C90008B33534A0121006814F0DEFAD7F874310F
:101CA00096E0D7F8683103F15000D7F860315B68EF
:101CB0001A460123D7F8581104F042F9C7F8740105
:101CC000D7F87431002B0FD0381DD7F87431019339
:101CD000464B009340F29333414A0121006814F0CF
:101CE000BBFAD7F8743173E0D7F8683103F190008C
:101CF000D7F860315B681A460023D7F8541104F016
:101D00001FF9C7F87401D7F87431002B0FD0381DB4
:101D1000D7F874310193354B009340F29B33304A2E
:101D20000121006814F098FAD7F8743150E0D7F820
:101D300060315B78022B39D1D7F8683150330421F8
:101D4000184604F0BDFBC7F87401D7F87431002BB6
:101D50000FD0381DD7F874310193254B009340F212
:101D6000A5331F4A0121006814F076FAD7F87431C0
:101D70002EE0D7F8683190330421184604F0A0FB18
:101D8000C7F87401D7F87431002B0FD0381DD7F87D
:101D900074310193164B00934FF46B73104A012179
:101DA000006814F059FAD7F8743111E007F108030C
:101DB0004FF480711846FFF791FA381D0D4B0093D0
:101DC0004FF47573064A0221006814F0DFF900230E
:101DD000184607F5BE77BD46F0BD00BFE00B020810
:101DE000DC0A02080094FFFFC00C0208D80C0208AD
:101DF000F00C0208100D020880B5A2B004AF7860A4
:101E0000396007F10C0318460AF089FF1B4B009359
:101E100040F22D431A4A0221786814F0B7F97B6822
:101E20001B6B03F1080207F10C03114618460AF078
:101E300093FF07F10C03396818460CF08DFA202344
:101E400002933B6801930F4B009340F232430C4ADC
:101E50000321786814F052FA0B4B009340F233439D
:101E6000074A0221786814F091F907F10C0318462B
:101E70000AF062FF00BF7837BD4680BD200D020822
:101E8000DC0A0208380D0208540D0208B0B5A4B0EF
:101E900008AF78600023FB669C4B009340F204532C
:101EA0009B4A0221786814F071F97B685B6A002B09
:101EB00003D07B689B6B002B0AD1964B00934FF4A9
:101EC000A163934A0121786814F060F9924BDFE234
:101ED0007B689B6B50331846FFF778F9034687F809
:101EE0005B307B68D3F898307A68D2F8A0200292F1
:101EF00001938A4B009340F20F53854A042178687E
:101F000014F0FCF97B68D3F8A030B3F5805F11D9E9
:101F10007B68D3F8A0304FF4805202920193804B3B
:101F2000009340F215537A4A0121786814F02EF993
:101F30007C4BADE297F85B30072B03D097F85B3012
:101F4000022B7DD17B68DB68002B6EDD7B689B6B91
:101F500003F138007B68D3F888300822194603F073
:101F600025FD7B689B6B03F138007B68D3F88C30D0
:101F70000322194603F01AFD7B689B6B03F13800BE
:101F80007B68D3F890300222194603F00FFD7B687E
:101F90009B6B03F138007B68D3F898107B68D3F80B
:101FA000A0301A4603F002FD7B689B6B383307F1C3
:101FB0000C021146184603F01BFD7B689B6B3833FF
:101FC000184603F07BFD7B68D3F898207B68D3F834
:101FD000A030D0187B689B6B5A6907F10C03194637
:101FE00018F0D0F87B68D3F898207B68D3F8A0303D
:101FF00013447A68926B5269029201934A4B0093A0
:1020000040F24C53424A0421786814F077F97B6817
:10201000D3F8A0207B689B6B5B691A447B68C3F88C
:10202000A020FB6E0133FB660AE03A4B009340F2BE
:102030004653374A0121786814F0A8F8364B27E256
:1020400097F85B30062B04D097F85B30082B40F0F4
:1020500022817B689B6B1B681B7F03F00203002BB4
:1020600001D0082300E0102387F853307B68D3F8B1
:10207000881007F130030822184618F083F87B68AF
:10208000D3F89C30DBB287F838307B6898687B687F
:10209000D9687B681B6893F85030C3F34003DBB208
:1020A0001A4607F13003093303F0C8FA7B68D3F806
:1020B000A0301B0ADBB287F83B307B68D3F8A03036
:1020C000DBB287F83C300D23029307F13003019314
:1020D000164B009340F285530D4A0421786814F0A2
:1020E0000DF97B689B6BDA687B689B6B1B69D31A65
:1020F000082B1DD0074B009340F28D53044A012159
:10210000786814F043F8044BC2E100BF640D020884
:10211000DC0A0208E00B02080094FFFF740D0208BD
:10212000940D0208008FFFFFBC0D0208CC0D0208C1
:102130007B689B6B03F118027B689B6B1B69D01853
:102140007B68D3F888300822194618F01BF87B68A2
:10215000D3F894007B68D3F888300822194618F029
:1021600011F87B68D3F894307A68926BD1687A68FA
:10217000926B12698A1A02920193A34B009340F268
:102180009653A24A0421786814F0B8F87B68D3F813
:102190009830FB647B68D3F8A030BB647B68D3F8CD
:1021A000A0207B689B6BD9687B689B6B1B69CB1AF3
:1021B0001A447B68C3F8A0207B68D3F8A0300022C3
:1021C00002920193924B009340F2A2538F4A032153
:1021D000786813F0DBFF7B689B6B03F150007B6832
:1021E0009B6B03F118017B689B6BDC68FA6CBB6C22
:1021F000134497F8532007F130050692059307F131
:1022000040030493FB6C0393BB6C0293FB6C019340
:102210000D2300932B46224604F0BEF978647B6CB4
:10222000002B0CD07B6C01937A4B009340F2AF53A0
:10223000764A0121786814F00FF87B6C28E13B6C3A
:10224000BA6C9A420AD0744B009340F2B5536F4A6D
:102250000121786813F09AFF704B19E17B68D3F87D
:10226000A02097F853301A447B68C3F8A020FB6E77
:102270000133FB66FA6CBB6C134497F8532002924F
:102280000193674B009340F2BC53604A0421786885
:1022900014F034F8E4E097F85B30022B40F0D5807E
:1022A0000023FB627B689B6BD9687B68D3F8A03006
:1022B00001337A68926BD268B3FBF2F002FB00F252
:1022C0009B1ACB1A3B667B689B6BDB683A6E9A4223
:1022D00001D100233B660023FB650EE07B68D3F849
:1022E00098207B68D3F8A010FB6D0B4413443A6E22
:1022F000D2B21A70FB6D0133FB65FA6D3B6E9A42E8
:10230000ECD97B68D3F8A0203B6E13445A1C7B6841
:10231000C3F8A0207B68D3F8A0307B667B68D3F835
:102320009830BB667B68DB68012B32DD7B681B68FD
:102330009B697A681268D0697A68926B02F1180119
:102340007A68926BD268984778657B6D002B01D0D4
:102350007B6D9DE07B68D3F894007B689B6B03F1F9
:1023600018017B689B6BDB681A4617F00BFF7B68D4
:10237000D3F89830BB667B68D3F8A0307B667B6867
:10238000D3F8A0207B689B6BDB681A447B68C3F89A
:10239000A0207B68D3F8A0307A68926BD268396E3F
:1023A00001310391029201931E4B009340F2F353CB
:1023B000164A0321786813F0E9FE7B689B6B03F1F2
:1023C00050007B689B6B03F118017B689B6BDA689C
:1023D00007F12C030293BB6E01937B6E0093BB6EDF
:1023E00004F096F878657B6D002B1FD07B6D019310
:1023F0000D4B009340F2FB53044A0121786813F01F
:102400002BFF7B6D44E000BFEC0D0208DC0A0208E4
:10241000F40D0208300E0208E00B02080094FFFFE2
:102420004C0E0208600E0208B00E0208FB6A7A6EBB
:102430009A4215D0184B009340F20163174A0121CC
:10244000786813F0A3FE164B22E0134B009340F282
:102450003763124A0121786813F098FE104B17E099
:10246000FB6E012B0AD00C4B009340F23E630B4AEB
:102470000121786813F08AFE094B09E0094B0093AB
:1024800040F24263054A0221786813F07FFE002380
:1024900018467037BD46B0BDE00B0208DC0A0208E2
:1024A0000094FFFFC80E0208B0B5AEB008AF786068
:1024B0000023C7F890300023C7F88C300123C7F8F9
:1024C0008830A24B00934FF4CA63A14A0221786876
:1024D00013F05CFE7B681B6A002B03D07B685B6B90
:1024E000002B0BD19B4B009340F25463984A01217F
:1024F000786813F04BFE984B00F025BC7B685B6B53
:1025000090331846FEF762FE034687F873307B6807
:102510001A6F7B685B6B9B689A4212D27B681B6F59
:102520007A68526B9268029201938C4B009340F24E
:102530005D63874A0121786813F028FE884B00F01C
:1025400002BC97F87330062B04D097F87330082B31
:1025500040F012817B685B6B1B681B7F03F00203FA
:10256000002B01D0082300E0102387F85F307B6840
:102570005B6BDA687B685B6B1B69D31ABB657B6836
:102580001A6F97F85F10BB6D0B449A4212D27B68AA
:102590001B6F97F85F200392BA6D02920193714B03
:1025A000009340F28D636A4A0121786813F0EEFDD2
:1025B0006B4BC8E37B681A6FBB6DD21A97F85F301C
:1025C000D31A7B657B685B6E3B657B685B6EFB64E7
:1025D0007B687A6D1A677B68596D07F130030822B2
:1025E000184617F0CFFD7B68DB6EDBB287F838301A
:1025F0007B6898687B68D9687B681B6893F8503063
:10260000C3F34003DBB21A4607F13003093303F08A
:1026100015F87B681B6F1B0ADBB287F83B307B68C1
:102620001B6FDBB287F83C300D23029307F13003B8
:1026300001934D4B009340F29E63454A0421786814
:1026400013F05CFE7B685B6B03F128027B685B6BBD
:102650001B69D0187B68196E7B685B6BDA687B68D6
:102660005B6B1B69D31A1A4617F08CFD7B685B6B9A
:1026700028337A68526BD268029201933B4B0093E5
:1026800040F2A563324A0421786813F037FE3A6DB0
:102690007B6D134497F85F2002920193344B0093B3
:1026A00040F2A6632A4A0421786813F027FE7B686B
:1026B0005B6B03F190007B685B6B03F128017B6827
:1026C0005B6BDC683A6D7B6D134497F85F2007F114
:1026D00030050692059307F140030493FB6C0393C6
:1026E0007B6D02933B6D01930D2300932B46224695
:1026F00003F080FFB864BB6C002B12D0BB6C01935D
:102700001C4B009340F2B363114A0121786813F027
:10271000A3FDBB6C13F5C64F01D1114B13E3BB6C8A
:1027200011E3D7F890300133C7F890303B6C7A6DE5
:102730009A4200F0C081074B009340F2BE63044A06
:102740000121786813F022FD034BFCE2D80E020849
:10275000DC0A0208E00B02080094FFFFE80E020802
:10276000808EFFFF080F0208CC0D0208EC0D020856
:102770003C0F0208480F020897F87330022B40F014
:102780008F810023C7F880300023FB627B68DB6801
:10279000012B07DD7B685B6BDB68D7F88020134477
:1027A000C7F880307B681A6F7B685B6BD968D7F895
:1027B00080300B449A420AD37B681A6F7B685B6B4C
:1027C0005969D7F880300B4401339A4215D27B689F
:1027D0001B6F7A68526BD2687968496B49690391BB
:1027E00002920193A74B00934FF4DC63A64A0121A8
:1027F000786813F0CBFCA54BA5E27B681B6FC7F88C
:1028000084307B685B6EFB667B685B6EBB667B6857
:102810001B6F7A68526BD268B3FBF2F102FB01F2D4
:102820009B1A002B11D07B681B6F7A68526BD268A1
:1028300002920193964B009340F21973924A012140
:10284000786813F0A3FC914B7DE27B68DB68012B79
:102850002DDD7B685B6BDB68D7F88420D31AC7F863
:1028600084307B681A6F7B685B6BDB68D21A7B688D
:102870001A670023C7F8943012E07B681A6ED7F805
:10288000943013447A68526B1978D7F89430134413
:1028900028330A461A70D7F894300133C7F89430B9
:1028A0007B685B6BDB68D7F894209A42E5D37B6842
:1028B0005B6B03F190007B685B6B03F128017B6825
:1028C0005B6BDA6807F12C030293BB6E0193D7F8B8
:1028D00084300093FB6E03F01BFE78667B6E002B4A
:1028E0000CD07B6E01936B4B009340F23173664AC0
:1028F0000121786813F0B0FC7B6E24E2FB6AD7F804
:1029000084209A420AD0644B009340F237735E4AA7
:102910000121786813F03AFC604B14E27B685A6E30
:102920007B681B6F013B13441B780133C7F88C3065
:102930007B681A6F7B685B6B5969D7F88C300B44E6
:102940009A4209D2D7F89030002B05D10023C7F85E
:102950008C300023C7F888307B68DB68002B40F39D
:1029600085800023FB670123BB677B681A6FD7F85C
:102970008C30D31A013B3B667B681A6FD7F88C30DA
:1029800001339A422CBF01230023DBB21A46D7F849
:1029900088301340C7F888307B685B6B5B6903F550
:1029A00080533A6E9A4234BF01230023DBB21A46A9
:1029B000D7F888301340C7F888303B6ED7F88820A6
:1029C00002FB03F33B660123C7F8943029E0D7F8F4
:1029D0009420D7F88C309A4294BF01230023DBB2B5
:1029E0001A46BB6F1340BB677B685A6E396ED7F8C7
:1029F00094300B4413441B781A46D7F88C30013BB3
:102A00009A420CBF01230023DBB21A46BB6F03FBC3
:102A100002F3FA6F1344FB67D7F894300133C7F819
:102A20009430D7F89430B3F5807FD0D9FA6FD7F8C7
:102A30008C309A420CBF01230023DBB21A46D7F830
:102A400088301340C7F88830D7F8882013465B02D7
:102A50009B1AD7F88C201340C7F88C307B681A6F0C
:102A6000D7F88C30D21A7B681A6725E00A4B00939E
:102A700040F29173044A0121786813F087FB074BF9
:102A800061E100BF640F0208DC0A0208808EFFFFCC
:102A9000A40F0208B00E0208E00B02080094FFFF2A
:102AA000AB4B009340F29B73AA4A0121786813F064
:102AB0006DFBA94B47E100BF7B685B6E7A68126FC4
:102AC00002920193A54B00934FF4F463A14A0421B1
:102AD000786813F013FCD7F89030002B40F0CC80CE
:102AE0007B681A6F7B685B6B5B69D21A7B681A67BD
:102AF0007B681B6F1A0A7B68DB6DD2B21A707B6829
:102B00001A6F7B68DB6D0133D2B21A707B68DB68A9
:102B1000002B40F3988000237B647B681A6FD7F802
:102B20008C30134415339A097B681B6F15339B094E
:102B3000D31A7B64D7F8882013461B029B1A7A6C41
:102B400013407B647B685B6B03F144007B685B6DC7
:102B50000822194602F02AFF7B685B6B03F14400F0
:102B60007B689B6D0322194602F020FF7B685B6B3C
:102B700003F144007B68DB6D0222194602F016FF68
:102B80007B685B6B03F144007B68596E7B681B6F4D
:102B90001A4602F00BFF7B685B6B443307F10C02B3
:102BA0001146184602F024FF00237B670CE07B6887
:102BB0005B6B03F144027B685B6E1946104602F0C2
:102BC000AFFF7B6F01337B677B6C01337A6F9A4277
:102BD000EDD37B685B6B4433184602F06FFF7B6874
:102BE0005B6B5B69029307F10C0301935C4B0093F1
:102BF00040F2E673574A0421786813F07FFB7B6844
:102C00005A6E7B681B6F13447A68526B526902924A
:102C10000193544B00934FF4FD634E4A04217868AE
:102C200013F06CFB7B685A6E7B681B6FD0187B6857
:102C30005B6B5A6907F10C031946FEF71EFB03464E
:102C4000002B0ED00AE0424B009340F2E273414A5F
:102C50000121786813F09AFA3F4B74E00023C7F81B
:102C60008830D7F890300133C7F89030D7F88830E3
:102C7000002B01D13C4B66E0D7F89030012B0AD0F5
:102C8000334B009340F2FF73324A0121786813F00E
:102C90007DFA314B57E07B681B6F002B13D17B68AB
:102CA000DB6F5A1C7B68DA677B68DB6F032B0DDDFB
:102CB0002E4B009340F60E03264A0121786813F04C
:102CC00065FA294B3FE07B680022DA670823C7F8E2
:102CD000943011E07B685A6DD7F89430013B13446F
:102CE0001A780132D2B21A701B78002B0DD1D7F8A6
:102CF0009430013BC7F894307868FEF706FB024633
:102D0000D7F894309342E5D800E000BF7868FEF72A
:102D1000FCFA0246D7F8943093420AD1144B009340
:102D200040F624030B4A0121786813F02FFA114B67
:102D300009E0114B009340F62903064A0221786806
:102D400013F024FA002318469837BD46B0BD00BFE3
:102D5000E00B0208DC0A02080094FFFFC40F02081F
:102D6000E00F0208F00F0208808EFFFF001002083B
:102D7000401002088094FFFF6410020890B589B0EB
:102D800004AF78603960564B009340F6C603554A4D
:102D90000221786813F0FAF97B685B69002B0ED189
:102DA0007B689B69002B0AD14F4B009340F6CB0305
:102DB0004C4A0121786813F0E9F94C4B8BE07B68B1
:102DC0009B6D1A467B681B6DD31AC3F589531D335F
:102DD0003A689A420AD9464B009340F6D103414AD9
:102DE0000121786813F0D2F9404B74E07B685B6F87
:102DF0003A68029201933F4B009340F66413394ABC
:102E00000221786813F0C2F956E07B685B6F3A687C
:102E1000D31ABB607868FEF7A7FA0346002B02D0EE
:102E2000354BFB601FE07B689B69002B0FD07B68F4
:102E30009C697B68D8697B689A6D7B685B6FD118E9
:102E40007B681B689B6CBA68A047F8600BE07B68E6
:102E50005B697A68D0697A68916D7A68526F1144BB
:102E6000BA689847F8607B685B6F3A680292019392
:102E7000204B009340F67C131A4A0221786813F025
:102E800085F9FB6801931D4B009340F67D13154AAD
:102E90000221786813F0E0F9FB68002B01D1184B90
:102EA00019E0FB68002B01DAFB6814E07B685A6FBD
:102EB000FB681A447B685A677B685B6F3A689A4282
:102EC000A3D8104B009340F68913064A0221786874
:102ED00013F05CF9002318461437BD4690BD00BFBF
:102EE00074100208DC0A020884100208008FFFFF39
:102EF000C0100208E01002080098FFFFFC10020852
:102F0000808DFFFF1411020890B58BB004AF78607C
:102F1000584B009340F69613574A0221786813F0F5
:102F200035F97B681B69002B0AD1544B009340F69E
:102F30009B13514A0121786813F028F9504B95E012
:102F40007B68D3F8A430002B53D14E4B009340F64E
:102F5000A213494A0221786813F018F9002385E08A
:102F60007868FEF776F902467B68D3F8A030134400
:102F70007A68D2F8A42002920193434B009340F662
:102F8000A9133D4A0221786813F000F97B68D3F851
:102F90008C407868FEF75DF902467B68D3F8A03074
:102FA0001A447B68D3F8A430D31A23443B617B686E
:102FB0001B697A68D0697A68D2F8A4203969984781
:102FC000F860FB680193314B009340F6AF132A4A37
:102FD0000221786813F040F9FB68002B01DCFB68E4
:102FE00044E07B68D3F8A420FB68D21A7B68C3F85E
:102FF000A4207B68D3F8A430002BB1D10823FB7543
:103000000FE07B68D3F88820FB7D013B13441A78DE
:103010000132D2B21A701B78002B0AD1FB7D013B22
:10302000FB75FC7D7868FEF770F903469C42E8D892
:1030300000E000BFFC7D7868FEF767F903469C421C
:103040000AD1134B009340F6BE130B4A0121786856
:1030500013F09CF80F4B09E00A4B009340F6C213A3
:10306000054A0221786813F091F8002318461C37AE
:10307000BD4690BD24110208DC0A02088410020833
:10308000008FFFFF34110208441102086811020882
:10309000741102088094FFFF90B58DB006AF786080
:1030A00000237B617B68D3F8A0303B61864B0093A3
:1030B00040F6B323854A0221786813F067F87B68ED
:1030C000D3F89C30162B3DD17B68D3F898301B7811
:1030D000FB60FB68002B0ED07B681B6B002B0AD1BA
:1030E0007B4B009340F6C523784A0121786813F0A2
:1030F0004DF8784BE4E03B69043B1A0C7B68D3F84D
:1031000098300133D2B21A703B69043B1A0A7B68CB
:10311000D3F898300233D2B21A703B69DAB27B68C6
:10312000D3F898300333043AD2B21A70FB68002BFC
:1031300008D07B681B6B5B6F7A68D2F898103A698D
:10314000786898477B69002B40F09C807B68D3F8B7
:103150009C207B68D3F88C30D2B21A707B68986858
:103160007B68D9687B681B6893F85030C3F34003D1
:10317000DBB21A467B68D3F88C30013302F05EFA7A
:103180003B691A0A7B68D3F89030D2B21A707B6818
:10319000D3F8903001333A69D2B21A707B689B6BD6
:1031A000002B25D07868FEF771FEB860BB68002B55
:1031B0000CD0BB680193484B009340F63733434A29
:1031C0000121786813F048F8BB6879E07B68D3F890
:1031D000A0303B613B691A0A7B68D3F89030D2B2C9
:1031E0001A707B68D3F8903001333A69D2B21A7002
:1031F0007868FEF72EF802467B68D3F8A0301A44B0
:103200007B68C3F8A4207B68D3F88C301B78194600
:103210007B68D3F88C3001331B7818467B68D3F871
:103220008C3002331B781C467B68D3F890301B78B7
:103230001B027A68D2F8902001321278134304936B
:10324000039402900191254B009340F645331F4AA9
:103250000321786812F09AFF7B68D3F88C40786875
:10326000FDF7F7FF02467B68D3F8A03013440293C2
:1032700001941B4B009340F64833144A04217868AC
:1032800013F03CF87868FFF73FFEB860BB68002B8E
:103290000CD0BB680193134B009340F64D330B4A9F
:1032A0000121786812F0D8FFBB6809E00E4B00934B
:1032B00040F65133054A0221786812F067FF002377
:1032C00018461C37BD4690BD98110208DC0A02085A
:1032D000E00B02080094FFFFA8110208B8110208D1
:1032E000F4110208141202083012020890B587B0D7
:1032F00004AF78607B681C6F7868FDF7B4FF034605
:103300009C420DD27B681B6F0193264B009340F6C5
:103310003543254A0121786812F038FF234B3CE001
:103320007868FDF7A0FF01467B685B6E01331B7870
:103330001A047B685B6E02331B781B0213437A68A6
:10334000526E033212781343CA187B689A677B68FF
:103350001B6F7A68526E127811467A68926F0392E8
:1033600002910193124B00934FF444630E4A0321E0
:10337000786812F00BFF7B681A6F7B689B6F9A422C
:103380000AD20C4B009340F67E43074A012178682D
:1033900012F0FCFE084B00E0002318460C37BD4637
:1033A00090BD00BF40120208DC0A0208008EFFFF39
:1033B0006012020898120208808FFFFF80B582B069
:1033C00000AF78607B685B68102B0CD07B681B6B50
:1033D000002B08D07B681B6B5B6F7A68516E7A6834
:1033E000926F7868984700BF0837BD4680BD0000DF
:1033F00090B58BB006AF78607B689C6D7868FDF700
:1034000028FF034602930194704B009340F6C55386
:103410006F4A0421786812F071FF7B689B6D1B78FE
:103420001A467B68DA667B68DB6D1B781B027A685C
:10343000D26D0132127813431A467B681A677B6893
:103440001B6893F85030C3F34003DBB21A467B6825
:103450009B6D013307F1080107F10C0002F003F93D
:103460007B68DB6EFA68B9687868006F0490039136
:1034700002920193574B009340F6CE53544A0321D6
:10348000786812F083FE7B68DB6E162B1BD07B689E
:10349000DB6E152B17D07B68DB6E142B13D07B688B
:1034A000DB6E172B0FD04C4B009340F6D653484A97
:1034B0000121786812F06AFE0A220221786800F081
:1034C00097FA464B7DE07B689A68FB689A420AD07F
:1034D000434B009340F6E6533D4A0121786812F0D1
:1034E00055FE3E4B6DE07B681B6893F84D301A46E5
:1034F000BB689A420ADA3B4B009340F6EC53344ADD
:103500000121786812F042FE344B5AE07B681A6F52
:103510007B685B6E19467B681B6DCB1AC3F58953BC
:103520001D339A420AD9304B009340F6F453284A8F
:103530000121786812F02AFE284B42E07B685B6B21
:10354000002B13D17B681B6F002B04D07B681B6F93
:10355000B3F5805F34D9244B009340F6FE531C4AE8
:103560000121786812F012FE1C4B2AE07B681A6F6A
:103570007B685B6B9B689A420AD21B4B009340F6B8
:103580000663134A0121786812F000FE134B18E01D
:103590007B68DB68002B13DD7B681A6F7B685B6BD5
:1035A0009B6803F588539A420AD90F4B009340F663
:1035B0001B63074A0121786812F0E8FD074B00E021
:1035C000002318461437BD4690BD00BFC412020840
:1035D000DC0A0208D812020814130208008EFFFF4A
:1035E00028130208401302085813020890B589B046
:1035F00004AF78600023FB607B689C6D7868FDF702
:1036000028FE02467B681B6F134402930194244BEF
:10361000009340F67863234A0421786812F06EFE26
:10362000FB68002B36D17B685B6B002B32D078684F
:10363000FEF73AFFB860BB68002B0CD0BB68019363
:10364000194B009340F68E63164A0121786812F0F8
:1036500003FEBB681FE07B685B6E7A68126F0292A4
:103660000193124B009340F693630E4A042178684D
:1036700012F044FE7B681B6FB3F5805F0AD90C4BD8
:10368000009340F69763074A0121786812F07EFDA7
:10369000084B00E0002318461437BD4690BD00BF1C
:1036A0006C130208DC0A0208881302089813020847
:1036B00058130208008EFFFF80B586B002AF786015
:1036C0002E4B009340F6BF632D4A0221786812F01A
:1036D0005DFD7B68D3F88030002B33D1786800F033
:1036E00057F8F860FB68002B0CD0FB680193254B62
:1036F000009340F6C763224A0121786812F0ACFDBE
:10370000FB6836E0786800F0F3F8F860FB6813F5C2
:10371000CD4FE3D0FB68002B0CD0FB680193194B15
:10372000009340F6D163164A0121786812F094FDA7
:10373000FB681EE07B68DB6E162B10D17868FFF704
:103740003DFE0CE0104B009340F6DC630C4A022176
:10375000786812F01BFD7B680022C3F880200B4BB9
:1037600000934FF46E63064A0221786812F00EFD52
:10377000002318461037BD4680BD00BFB4130208B1
:10378000DC0A0208C4130208E41302080814020841
:1037900080B588B004AF78607B689B6F002B3ED00B
:1037A0007B689B6E002B0AD04C4B009340F60E7347
:1037B0004B4A0121786812F0E9FC4A4B89E07B68AA
:1037C0009A6F7B681B6F9A4222D27B681A6F7B6864
:1037D0009B6FD21A7B681A677B68586E7B685A6E3B
:1037E0007B689B6FD1187B681B6F1A4616F040FDF3
:1037F0007B685B6E7A68126F029201933A4B00937A
:1038000040F62E73364A0421786812F077FD02E004
:103810007B6800221A677B6800229A6708E07B6851
:103820009B6E002B01D0002353E07B6800221A67B7
:103830007B681B6F002B01D000234AE07868FDF7FE
:1038400008FD034619467868FFF798FAF860FB68A8
:10385000002B0CD0FB680193244B009340F6597366
:103860001F4A0121786812F0F7FCFB6831E07868A4
:10387000FFF7BEFDF860FB68002B01D0FB6828E075
:103880007868FDF7E6FC02467B681B6F1344194617
:103890007868FFF773FAF860FB68002B0CD0FB68C0
:1038A0000193124B009340F683730D4A012178680F
:1038B00012F0D2FCFB680CE07B6800225A67786843
:1038C000FFF794FEF860FB68002B01D0FB6800E076
:1038D000002318461037BD4680BD00BFE00B02082C
:1038E000DC0A02080094FFFF1814020834140208CE
:1038F00080B588B004AF78607B68DB6E162B08D18A
:103900007868FFF7F3FCF860FB68002B01D0FB68D8
:103910005AE07B68DB6E152B55D17B685B6E1B789C
:103920001A467B685B6E01331B7802930192284B29
:10393000009341F20B03274A0221786812F026FC1B
:103940007B685B6E1B78022B0FD17B685B6E01334B
:103950001B780193204B009341F213031D4A012170
:10396000786812F013FC1D4B2EE07B685B6E1B78B1
:10397000012B10D17B685B6E01331B78002B0AD1C1
:10398000174B009341F21A03124A0221786812F091
:10399000FDFB144B18E07B685B6E1B78012B10D18C
:1039A0007B685B6E01331B78642B0AD10E4B00934E
:1039B00041F22203074A0221786812F0E7FB002354
:1039C00002E00A4B00E0002318461037BD4680BDD8
:1039D0004C140208DC0A0208701402088088FFFFF9
:1039E000941402088087FFFFB01402088099FFFF3B
:1039F00080B588B004AF78600B46FB701346BB708F
:103A00007B68002B03D07B681B68002B01D1264B01
:103A100046E0264B009341F25203254A0221786882
:103A200012F0B4FBFB78BA7802920193214B009319
:103A300041F253031E4A0321786812F0A7FB7B680A
:103A40001522C3F89C207B680222C3F8A0207B6863
:103A5000D3F89830FA781A707B68D3F8983001332D
:103A6000BA781A707868FFF717FBF860FB68002BCC
:103A70000CD0FB680193104B009341F25C030C4A9D
:103A80000121786812F0E8FBFB6809E00B4B00931A
:103A900041F25F03064A0221786812F077FB0023A7
:103AA00018461037BD4680BD008FFFFFC4140208C2
:103AB000DC0A0208DC140208FC14020818150208CB
:103AC00080B58CB004AF7860814B7B617B681B6CE8
:103AD0001B683B617F4B009341F2A1037E4A0221A8
:103AE000786812F053FB3B699B7A052B0BD03B693E
:103AF0009B7A062B07D03B699B7A082B03D03B6946
:103B00009B7A0B2B0FD1754B009341F2A803724A9D
:103B10000221786812F03AFB7B685B685A1C7B686C
:103B20005A600023CFE07B681B6893F8503003F0A5
:103B30000103DBB2002B14D17B68D3F8A830002B33
:103B40000FD1664B009341F2B203634A02217868B9
:103B500012F01CFB7B685B685A1C7B685A60002370
:103B6000B1E07868FDF753FB034601935C4B00938B
:103B700041F2D503584A0321786812F051FF072318
:103B8000FB617868FDF743FBB8614EE0BB695B6899
:103B9000FB60FB69C3F57F630D33FA689A4212D963
:103BA000FA69FB68134403334FF480520292019385
:103BB0004C4B009341F2E903474A0121786812F027
:103BC000E5FA494B7FE0FB68190C7B68D3F8982035
:103BD000FB691344CAB21A70FB68190A7B68D3F8F0
:103BE0009820FB6901331344CAB21A707B68D3F87A
:103BF0009820FB6902331344FA68D2B21A70FB6949
:103C00000333FB617B68D3F89820FB69D018BB694C
:103C10009B68FA68194616F0B5FAFA69FB6813440E
:103C2000FB61BB69D3F83031BB61BB69002BADD1FF
:103C3000FB69073B1A0C7B68D3F898300433D2B287
:103C40001A70FB69073B1A0A7B68D3F89830053372
:103C5000D2B21A70FB69DAB27B68D3F898300633B7
:103C6000073AD2B21A707B68FA69C3F8A0207B6861
:103C70001622C3F89C207B68D3F898300B221A7068
:103C80007B685B685A1C7B685A607868FFF704FAA7
:103C900078617B69002B0CD07B690193134B0093F7
:103CA00041F205130C4A0121786812F0D5FA7B69BC
:103CB00009E00F4B009341F20913074A022178688B
:103CC00012F064FA7B6918462037BD4680BD00BFFC
:103CD000808FFFFF30150208DC0A02084815020831
:103CE0006415020874150208008BFFFFFC1402081B
:103CF00094150208B0B58EB004AF7860994B7B6222
:103D00007B681B6C1B68BB617B681B6893F8503039
:103D1000C3F38103DBB27B61934B009341F2161333
:103D2000924A0221786812F031FABB699B7A052B1E
:103D30000BD0BB699B7A062B07D0BB699B7A082BFB
:103D400003D0BB699B7A0B2B0FD1894B009341F2B7
:103D50001D13864A0221786812F018FA7B685B68A6
:103D60005A1C7B685A60002385E27868FFF7A4FC40
:103D700078627B6A002B0CD07B6A01937D4B0093A9
:103D800041F23E13794A0121786812F065FA7B6AA4
:103D900071E27B685B685A1C7B685A607B68DB6EEB
:103DA000162B0FD0744B009341F27B136F4A012105
:103DB000786812F0EBF90A2202217868FFF718FE02
:103DC0006E4B58E27B685B6E1B780B2B08D17B68CF
:103DD0009C6F7868FDF747FA034606339C420FD282
:103DE000654B009341F28413604A0121786812F018
:103DF000CDF9322202217868FFF7FAFD604B3AE2F2
:103E00007868FDF730FA38627B685A6E3B6A013396
:103E100013441B781B027A68516E3A6A02320A44D4
:103E2000127813433B617B685A6E3B6A13441B78DC
:103E3000002B0AD17B689C6F7868FDF714FA024664
:103E40003B69134403339C420FD04B4B009341F228
:103E50009413464A0121786812F098F9322202211F
:103E60007868FFF7C5FD464B05E27B68DB6ADB6DD2
:103E7000002B0BD07B68DB6ADB6D184605F05CFA23
:103E80007B68DB6ADB6D184615F09AFE7B68DC6A9E
:103E90004FF49A71012015F03FFE0346E365E36D90
:103EA000002B12D14FF49A730193364B009341F2D9
:103EB000A5132E4A0121786812F068F950220221D8
:103EC0007868FFF795FD304BD5E17B68DB6ADB6DE9
:103ED000184605F023FA3B6A03333B6293E07B68A4
:103EE0005A6E3B6A13441B78002B0FD0224B009371
:103EF00041F2B3131D4A0121786812F047F93222CA
:103F000002217868FFF774FD1D4BB4E17B685A6E9F
:103F10003B6A013313441B781B027A68516E3A6A7C
:103F200002320A44127813433B613B6A03333B621B
:103F30003B697F2B06D93A6A3B691A447B689B6FC1
:103F40009A4223D90C4B009341F2BF13074A012137
:103F5000786812F01BF9322202217868FFF748FDD9
:103F6000074B88E1808FFFFFAC150208DC0A0208CE
:103F7000C4150208E0150208F81502080089FFFFC1
:103F80000086FFFF101602080081FFFF7B68DB6AD6
:103F9000D86D7B685A6E3B6A13443A69194603F040
:103FA000AFFC78627B6AA04A934227D09E4A934234
:103FB00003DC13F5225F06D00BE013F5165F05D086
:103FC000002B1BD005E05023FB7704E02B23FB776D
:103FD00001E02A23FB77FB7F1A4602217868FFF76E
:103FE00007FD7B6A0193914B009341F2DB13904AEA
:103FF0000121786812F030F97B6A3CE100BF3A6A2F
:104000003B6913443B627B689B6F3A6A9A42FFF4B8
:1040100066AF7B68DB6ADB6D0193864B009341F2F0
:10402000E213834A0321786812F0FAFC7B69002BC3
:1040300000F017817B681B68DB6BFB607B681B688B
:104040001B6CBB607B68DB6ADC6D7B681B685D6B2F
:104050007B68D3F8AC307A68D26A603279680968D4
:10406000C96A78680068006B03900291019200931E
:104070002B46BA68F968204604F0DAFF78627B6A5A
:10408000002B0AD07B6A01936B4B009341F22123F2
:10409000674A0121786812F0DFF87B68DB6AD86D27
:1040A0007B681B6893F8503003F00103DBB2002BF0
:1040B0000CBF01230023DBB21A467B68DB6A603346
:1040C000B96901F0ACFA0346002B0DD05B4B0093AD
:1040D00041F23E23564A0121786812F057F87B6A74
:1040E000002B01D1564B7B627B69012B09D17B6A86
:1040F00013F51C5F03D07B6A13F5F44F01D1002345
:104100007B62FB68002B0DD17B69022B0AD14D4BE2
:10411000009341F25223464A0121786812F036F8A2
:10412000494B7B627B6A002B6BD07B68DB6A1B6E22
:1041300003F48073002B02D03123FB775BE07B68B4
:10414000DB6A1B6E03F00403002B02D02A23FB77EB
:1041500051E07B68DB6A1B6E03F40063002B02D026
:104160002B23FB7747E07B68DB6A1B6E03F48053ED
:10417000002B02D02B23FB773DE07B68DB6A1B6EB4
:1041800003F40053002B02D02B23FB7733E07B6832
:10419000DB6A1B6E03F40043002B02D02B23FB775A
:1041A00029E07B68DB6A1B6E03F48033002B02D0AE
:1041B0002B23FB771FE07B68DB6A1B6E03F0010398
:1041C000002B02D02D23FB7715E07B68DB6A1B6E8A
:1041D00003F00203002B02D02C23FB770BE07B685B
:1041E000DB6A1B6E03F00803002B02D03023FB7741
:1041F00001E02E23FB77FB7F1A4602217868FFF748
:10420000F7FB7B68DB6A1B6E002B21D07B68DB6AC7
:104210001B6E01930D4B009341F27923044A032155
:10422000786811F0B3FF1CE0D2D9FFFF281602080E
:10423000DC0A020844160208581602086C16020826
:104240000086FFFF901602088089FFFFA016020873
:104250000B4B009341F27D230A4A0321786811F049
:1042600095FF094B009341F28223064A02217868A8
:1042700011F08CFF7B6A18462837BD46B0BD00BFE1
:10428000C4160208DC0A0208EC16020880B586B0E3
:1042900002AF78601E4B009341F292231D4A022127
:1042A000786811F073FF7B681422C3F89C207B6848
:1042B0000122C3F8A0207B68D3F8983001221A703D
:1042C0007B685B685A1C7B685A607868FEF7E4FE7E
:1042D000F860FB68002B0CD0FB6801930E4B009339
:1042E00041F29C230B4A0121786811F0B5FFFB686D
:1042F00009E00A4B00934FF49553064A022178686F
:1043000011F044FF002318461037BD4680BD00BFA2
:1043100004170208DC0A0208FC140208201702082D
:1043200080B586B002AF7860444B009341F2A92378
:10433000434A0221786811F029FF7868FFF7BCF939
:10434000F860FB68002B0CD0FB6801933D4B009399
:1043500041F2AD233A4A0121786811F07DFFFB68F4
:1043600068E07B68DB6E142B0FD0374B009341F273
:10437000B323334A0121786811F008FF0A22022191
:104380007868FFF735FB314B54E07B681B6F012BDE
:1043900004D17B685B6E1B78012B0FD02A4B0093F6
:1043A00041F2BB23264A0121786811F0EFFE322248
:1043B00002217868FFF71CFB254B3BE0254B00935F
:1043C00041F2C5231E4A0321786811F0DFFE7B68A5
:1043D0001A6C7B685A637B68DA6A7B681A627B684E
:1043E0005B6D08220021184615F0A4FF7B68DB688E
:1043F000012B0CDD7B681A6E7B681B6CD9687B68AF
:104400001B6C1B69CB1A1A447B685A6603E07B68F5
:104410001A6E7B685A667B685B685A1C7B685A60B8
:104420000D4B009341F2F723054A0221786811F001
:10443000ADFE002318461037BD4680BD3C1702086C
:10444000DC0A0208E0150208581702080089FFFF7D
:104450000082FFFF78170208AC17020880B584B00D
:1044600002AF786039603B685B7A072B04D07B68C9
:104470001B6B084A5A6709E0074B009341F214335B
:10448000064A0121786811F081FE00BF0837BD4659
:1044900080BD00BFC5440008E00B0208DC0A02082A
:1044A00080B584B000AFF860B9607A60FB681B6BC0
:1044B00008337A68B968184609F0D8FE00BF10378B
:1044C000BD4680BD80B584B000AFF860B9607A6049
:1044D000FB681B6B08337A68B968184609F0C6FE9A
:1044E00000BF1037BD4680BD90B5AFB004AFF860D7
:1044F000B9607A600C23C7F8A030FB68DB6AC7F8A4
:10450000A430D7F8A430002B03D1FB689B6AC7F80E
:10451000A43007F13003184608F001FC364B009335
:1045200041F2F833354A0221F86811F02FFEFB689A
:104530001B6B03F1080207F130031146184608F01F
:104540000BFC2023029307F13003083301932C4B1B
:10455000009341F20443294A0421F86811F0CEFE89
:104560007B68002B01D1274B00E0274BC7F89C301C
:1045700007F1100207F130031146184609F0ECFE6E
:10458000FB681B6BD3F88040D7F8A43003F12C00F4
:10459000D7F8A03007F110020293BB6801932023E3
:1045A00000931346D7F89C203021A047D7F8A030BD
:1045B0000293BB680193154B009341F210430F4ADD
:1045C0000321F86811F09AFE07F13003184608F04D
:1045D000B3FB07F1100320211846FCF77FFE0C4BBC
:1045E000009341F21643054A0221F86811F0CEFD0E
:1045F00000BFAC37BD4690BDC8170208DC0A0208F0
:10460000E8170208FC1702080C1802081C18020818
:104610003418020880B584B002AF78601B4B009359
:1046200041F24E431A4A0321786811F0AFFD7B68CE
:104630001B6B184600F000FF7B681B6B184615F0DB
:10464000BFFA7B6800221A637B68DB6B002B09D002
:104650007B68DB6B184600F0CBFE7B68DB6B184693
:1046600015F0AEFA7B681A6C7B68DA637B6800220F
:104670001A64084B009341F26243054A03217868AB
:1046800011F084FD00BF0837BD4680BD4818020800
:10469000DC0A02086818020880B586B002AF7860AC
:1046A0007B681B6BD3F8F830FB602B4B009341F217
:1046B00069432A4A0321786811F068FD7B689B6A88
:1046C000002B09D07B689B6A184600F0CBFE7B6804
:1046D0009B6A184615F074FA7B68DA6A7B689A62FE
:1046E0007B680022DA627B681B685B6A002B1DD046
:1046F0007B689B6A9B68002B18D0FB68002B15D148
:104700007B681B685B6A7A681268906A7A68926A4A
:10471000114698470346002B08D0114B009341F2F5
:104720008C430E4A0121786811F030FD7868FFF75C
:1047300071FF7B685B685A1C7B685A60094B009369
:104740004FF4A553054A0321786811F01FFD00BFFF
:104750001037BD4680BD00BF88180208DC0A020879
:104760009C180208B818020880B586B002AF7860BD
:104770004D4B009341F2A7434C4A0221786811F057
:1047800005FD7B68DB68012B0EDD7B68D3F8942088
:104790007B681B6CD9687B681B6C1B69CB1A1A443D
:1047A0007B68C3F8982005E07B68D3F894207B6889
:1047B000C3F898207B681B6BDB6F7A68D2F898206F
:1047C000111D7A68126892F85020C2F30002D2B22A
:1047D000786898477B68DB68002B01D1242300E0D0
:1047E0000C23FB60FB6804331A467B68C3F8A020E7
:1047F0007B681622C3F89C207B68D3F8983014227B
:104800001A707B681B6BD3F8F830002B0CD07B68D8
:104810001B6893F8503003F00103DBB2002B08D182
:104820007B680F225A6004E07B685B685A1C7B68D7
:104830005A601F4B009341F2DD431C4A0321786804
:1048400011F0A4FC7B68D3F88830082200211846B8
:1048500015F070FD7B681A6C7B689A637B68DA6A76
:104860007B685A627868FEF717FCB860BB68002B5B
:104870000CD0BB6801930F4B009341F210530B4ACD
:104880000121786811F0E8FCBB6809E00A4B00934D
:1048900041F21453054A0221786811F077FC002395
:1048A00018461037BD4680BDCC180208DC0A020845
:1048B000E0180208FC1402081419020890B58BB025
:1048C00002AF7860544B009341F22553534A0221C2
:1048D000786811F05BFC7B681B6BDB6F7A68126891
:1048E00092F85020C2F30002D2B282F00102D2B29A
:1048F00007F10C01786898477868FEF7DDFEF861EB
:10490000FB69002B0CD0FB690193454B009341F2EE
:104910002B53424A0121786811F09EFCFB6976E036
:104920007B68DB6E162B0FD03E4B009341F2315368
:104930003A4A0121786811F029FC0A22022178689C
:10494000FFF756F8384B62E00C23BB617B685B6E67
:104950001B78142B09D17B689C6F7868FCF783FC6B
:104960000246BB6913449C420FD02E4B009341F288
:1049700042532A4A0121786811F008FC32220221B0
:104980007868FFF735F8294B41E07B685C6E786802
:10499000FCF769FC0346234407F10C01BA69184689
:1049A000FCF76BFC0346002B0FD01E4B009341F22B
:1049B0004B531A4A0121786811F0E8FB3222022198
:1049C0007868FFF715F8194B21E07B681B6BD3F86B
:1049D000F830002B0CD07B681B6893F8503003F044
:1049E0000103DBB2002B08D17B680A225A6004E085
:1049F0007B685B685A1C7B685A600D4B009341F2E0
:104A00006953064A0221786811F0C0FB002318465A
:104A10002437BD4690BD00BF28190208DC0A0208F1
:104A2000E01502083C1902080089FFFF8081FFFFA2
:104A30005419020880B582B000AF78604FF48472D8
:104A40000021786815F076FC7B680833184608F07A
:104A500066F97B6808330021184608F08FF97B68F7
:104A6000044A5A677B681846FCF7C5FB00BF083745
:104A7000BD4680BDA144000880B582B000AF78601B
:104A8000D0220021786815F055FC7B685033184619
:104A900001F0FCF97B689033184601F0F7F97B6868
:104AA0003833184600F036FE7B684433184600F071
:104AB00031FE00BF0837BD4680BD80B582B000AF73
:104AC000786064220021786815F034FC00BF083754
:104AD000BD4680BD80B584B002AF78607B681B6C3A
:104AE000002B04D07B681B6C184600F081FC7B68AF
:104AF000DB6A002B04D07B68DB6A184600F0B2FC4E
:104B00007B681B6B002B04D07B681B6B184600F086
:104B100093FC7B681B6C002B07D1D021012014F083
:104B2000FBFF03461A467B681A647B68DB6A002B2E
:104B300007D16421012014F0EFFF03461A467B6879
:104B4000DA627B681B6B002B08D14FF48471012063
:104B500014F0E2FF03461A467B681A637B681B6BFE
:104B6000002B07D07B681B6C002B03D07B68DB6AB3
:104B7000002B22D11B4B009341F2D0531A4A012142
:104B8000786811F003FB7B681B6B184615F018F86A
:104B90007B681B6C184615F013F87B68DB6A1846B7
:104BA00015F00EF87B6800221A637B6800221A64F5
:104BB0007B680022DA620D4B0FE07B68DB6A1846E7
:104BC000FFF77BFF7B681B6C1846FFF755FF7B6880
:104BD0001B6B1846FFF72EFF002318460837BD460B
:104BE00080BD00BF68190208DC0A02080081FFFFCF
:104BF00080B582B000AF7860B4220021786815F0EB
:104C000099FB00BF0837BD4680BD000080B586B067
:104C100002AF7860396041F23D13FB607B683A680F
:104C20001A60F968012014F077FF03461A467B6882
:104C30001A657B681B6D002B0DD0F968012014F0FC
:104C40006BFF03461A467B68C3F884207B68D3F861
:104C50008430002B14D1FB680193314B009341F257
:104C60002963304A0121786811F090FA7B681B6D46
:104C7000184614F0A5FF7B6800221A652A4B4BE00A
:104C80007B68D3F884207B68C3F888207B68D3F8DE
:104C9000843003F108027B68C3F88C207B68D3F86A
:104CA000843003F10B027B68C3F890207B68D3F853
:104CB000843003F10D027B68C3F894207B68D3F83D
:104CC000843003F10D027B68C3F898207B681A6D6D
:104CD0007B685A657B681B6D03F108027B689A65E7
:104CE0007B681B6D03F10B027B68DA657B681B6DCB
:104CF00003F10D027B681A667B681B6D03F10D02E0
:104D00007B685A667868FFF7E5FEB860BB68002BE1
:104D100001D0BB6800E0002318461037BD4680BDB7
:104D200010160208DC0A02080081FFFF80B483B07D
:104D300000AF786039603B6803F00103D9B27A684C
:104D400092F8503061F3000382F8503000BF0C3706
:104D5000BD4680BC704780B483B000AF78603960D6
:104D60003B6803F00103D9B27A6892F8503061F3DE
:104D7000410382F8503000BF0C37BD4680BC7047FD
:104D800080B483B000AF786039603B6803F0030300
:104D9000D9B27A6892F8503061F3830382F85030C8
:104DA00000BF0C37BD4680BC704780B485B000AFF3
:104DB000F860B9607A60FB68BA689A61FB687A68E3
:104DC000DA6100BF1437BD4680BC704780B485B03F
:104DD00000AFF860B9607A60FB68BA681A61FB6876
:104DE0007A685A6100BF1437BD4680BC704780B4F2
:104DF00085B000AFF860B9607A603B60FB68BA6864
:104E0000DA61FB687A681A61FB683A685A61FB6884
:104E1000BA699A6100BF1437BD4680BC704780B440
:104E200085B000AFF860B9607A60FB68BA68DA6391
:104E3000FB687A681A6400BF1437BD4680BC7047AF
:104E400090B585B000AF786039600023FB603B68A7
:104E5000002B08D0386815F063FCF860FB68FF2B66
:104E600001D9244B42E07B68D3F8AC30002B13D03F
:104E70007B68D3F8AC407B68D3F8AC30184615F0AB
:104E80004FFC034619462046FCF728FA7B68D3F806
:104E9000AC30184614F094FE3B68002B04D17B68BC
:104EA0000022C3F8AC2020E0FB6801331946012042
:104EB00014F032FE03461A467B68C3F8AC207B68C8
:104EC000D3F8AC30002B01D10B4B0FE07B68D3F84B
:104ED000AC30FA683968184615F054F97B68D3F895
:104EE000AC20FB68134400221A70002318461437C4
:104EF000BD4690BD008FFFFF0081FFFF80B582B0EF
:104F000000AF78607B68002B03D07B689B6A002B26
:104F100001D1002306E07B689B6A1B6818460AF0F3
:104F200071FD034618460837BD4680BD80B584B084
:104F300000AF78600E4BFB607B68002B03D07B6872
:104F40001B68002B01D10B4B0DE07B681B6893F8AD
:104F5000503003F00103DBB2002B03D178680EF070
:104F6000A9FDF860FB6818461037BD4680BD00BF3C
:104F7000808FFFFF008FFFFF80B586B002AF7860A3
:104F80000023FB607B68002B03D07B681B68002B31
:104F900001D1134B20E0134B009341F60323124A37
:104FA0000221786811F0F2F806E07868FFF7BEFF9A
:104FB000F860FB68002B04D17B685B68102BF4D190
:104FC00000E000BF094B009341F60D23064A022181
:104FD000786811F0DBF8FB6818461037BD4680BDD5
:104FE000008FFFFFB4190208DC0A0208C419020886
:104FF00090B589B002AFF860B9607A60FB68002BA9
:1050000003D0FB681B68002B01D1974B27E1974B1E
:10501000009341F6BD23964A0221F86811F0B6F8D4
:10502000FB685B68102B17D0F868FFF7A5FF786165
:105030007B6913F5D64F0FD07B69002B0CD07B69B1
:1050400001938C4B009341F6EA23894A0121F868C9
:1050500011F002F97B6902E1FB689B6E002B40F0C6
:10506000CE80FB68DB6C002B10D0FB68DB6CFA6831
:10507000526C104698470346B3F1FF3F06D1FB68D8
:105080001B689B6C1946F868FCF74AF9F868FEF74C
:1050900013FB78617B69002B12D07B6913F5E54F18
:1050A00001D10023DBE07B690193734B00934FF444
:1050B000D9536F4A0121F86811F0CEF87B69CEE030
:1050C000FB681B6F002B1DD1FB68DB6E172B19D102
:1050D000F868FEF7F1FA78617B69002B12D07B69E2
:1050E00013F5E54F01D10023B9E07B690193624BD1
:1050F000009341F62F335E4A0121F86811F0ACF8B5
:105100007B69ACE0FB68DB6E162B4ED15B4B0093EA
:1051100041F63633564A0121F86811F037F8FB683A
:105120001B6893F8503003F00103DBB2002B17D15A
:10513000FB685B6E1B78002B07D1FB689C6FF868DF
:10514000FCF791F803469C420AD04D4B009341F680
:105150004333474A0121F86811F018F8494B7EE0C3
:10516000494B009341F67F33414A0321F86811F01F
:105170000DF8FB68DB68002B0ADD64220121F8686A
:10518000FEF736FC78617B69002B0CD07B6966E00A
:105190003E4B009341F69B33354A0121F86810F0ED
:1051A000F5FF3B4B5BE03B4B59E0FB68DB6E152B9F
:1051B0000AD1394B009341F6B4332D4A0221F868E5
:1051C00010F0E4FF334B4AE0FB68DB6E172B0AD08C
:1051D000324B009341F6BA33254A0121F86810F0AA
:1051E000D5FF284B3BE0FB685A6EFB689A66FB686C
:1051F0005B68102B03D10021F868FCF791F8FB687D
:105200001B6F7A68934228BF13463B61FB689B6E15
:105210003A691946B86814F0B5FFFB681A6F3B6924
:10522000D21AFB681A67FB681B6F002B07D1FB685B
:1052300000229A66FB680022C3F8802005E0FB6824
:105240009A6E3B691A44FB689A66154B009341F6C7
:10525000E933074A0221F86810F098FF3B691846C5
:105260001C37BD4690BD00BF008FFFFFD419020858
:10527000DC0A0208DC190208E0150208F419020829
:10528000101A02080089FFFF381A0208E00B020812
:105290000094FFFF0097FFFF601A0208881A0208B7
:1052A000A81A020880B588B002AFF860B9607A60C9
:1052B0004FF480537B617A687B699A4201D97B699C
:1052C0007B60FB68D3F8A430002B13D0F868FDF79F
:1052D0001BFE38613B69002B30D03B6901931A4BB0
:1052E000009341F60E43194A0121F86810F0B4FF0B
:1052F0003B6924E0FB687A68C3F8A020FB681722AA
:10530000C3F89C20FB68D3F898307A68B9681846CF
:1053100014F038FFF868FDF7BFFE38613B69002BD9
:105320000CD03B6901930A4B009341F61A43074A9C
:105330000121F86810F090FF3B6900E07B68184697
:105340001837BD4680BD00BF14120208DC0A0208EF
:10535000FC14020880B588B002AFF860B9607A60CA
:105360001E4B009341F64F431D4A0221F86810F08E
:105370000DFFFB68002B03D0FB681B68002B01D1DD
:10538000184B27E0FB685B68102B13D0F868FFF719
:10539000F3FD78617B69002B0CD07B690193124B84
:1053A00000934FF4E3530E4A0121F86810F054FFC4
:1053B0007B690FE07A68B968F868FFF773FF786176
:1053C0000A4B009341F66B43054A0221F86810F03E
:1053D000DDFE7B6918461837BD4680BDB01A02084D
:1053E000DC0A0208008FFFFFDC190208BC1A020861
:1053F00080B582B000AF78607B68002B18D07B68E6
:105400005033184600F04FFD7B689033184600F08B
:105410004AFD7B683833184600F089F97B684433CD
:10542000184600F084F9D0217868FBF757FF00E0B8
:1054300000BF0837BD4680BD80B582B000AF786040
:105440007B68002B0AD07B680833184607F074FC91
:105450004FF484717868FBF741FF00E000BF083724
:10546000BD4680BD80B582B000AF78607B68002B00
:1054700012D07B68DB6D002B09D07B68DB6D184692
:1054800003F05AFF7B68DB6D184614F099FB64212A
:105490007868FBF723FF00E000BF0837BD4680BDFA
:1054A00080B582B000AF786054220021786814F093
:1054B00041FF00BF0837BD4680BD000080B584B005
:1054C00000AFF860B9607A603B60B968F868FFF7D0
:1054D0002DFC7968F868FFF73EFCBB68002B07D10C
:1054E000FA6892F85030022161F3830382F8503059
:1054F0003B68022B25D1FB68032283F84E20FB6812
:10550000032283F84F20FB68032283F84C20FB68BA
:10551000032283F84D20FB68204ADA60FB68DA68D2
:10552000FB689A60FB689A68FB685A60FB685A6877
:10553000FB681A60FB681A4A5A63FB68194A5A6486
:1055400026E0FB68032283F84E20FB68032283F8E1
:105550004F20FB68032283F84C20FB68032283F86A
:105560004D200AF027FA0246FB68DA60FB68DA6829
:10557000FB689A60FB689A68FB685A60FB685A6827
:10558000FB681A60FB68084A5A63FB68074A5A645A
:10559000002318461037BD4680BD00BF1000002014
:1055A000981C02081C000020781C0208040000203F
:1055B00080B582B000AF786001217868FBF730FADF
:1055C0000346002B01D0012300E0002318460837D2
:1055D000BD4680BD80B483B000AF78600B46FB70E1
:1055E0007B68FA781A707B68FA785A7000BF0C37BB
:1055F000BD4680BC704780B483B000AF78607B68E4
:10560000052B02D0062B02D003E0032302E0042383
:1056100000E0002318460C37BD4680BC704780B4BC
:1056200087B000AFF860B9607A603B6000237B61AF
:105630007B6918461C37BD4680BC704780B485B076
:1056400000AFF860B9607A603B60FB68DAB23B6833
:105650001A703B680133BA68D2B21A7000BF1437AF
:10566000BD4680BC704780B485B000AFF860B960BB
:105670007A603B603B681B781A46FB681A603B689F
:1056800001331B781A46BB681A6000BF1437BD4649
:1056900080BC704780B582B000AF78604FF4A072D4
:1056A0000021786814F046FE00BF0837BD4680BD73
:1056B00080B485B000AF786039607B68FB6004E03F
:1056C000FB685A1CFA6000221A703B685A1E3A6046
:1056D000002BF5D100BF1437BD4680BC70470000D9
:1056E00080B483B000AF0346FB71FB79052B02D079
:1056F000062B02D003E0054B02E0054B00E000233F
:1057000018460C37BD4680BC704700BFF026020823
:105710002827020880B582B000AF78600C220021F3
:10572000786814F007FE00BF0837BD4680BD80B51D
:1057300082B000AF78607B68002B26D07B681B6846
:10574000002B22D07B685B68002B06D07B681B682F
:105750005B6A7A685268104698477B689B68002BA2
:105760000ED07B689A687B681B68DB685B00194613
:105770001046FFF79DFF7B689B68184614F020FADF
:105780000C217868FFF794FF00E000BF0837BD46A2
:1057900080BD000080B584B000AFF860B9607A6069
:1057A000BB68002B02D0FB68002B01D1174B28E00F
:1057B000BB681B6A98470246FB685A60FB685B68D7
:1057C000002B01D1124B1CE07B68002B15D0BB686D
:1057D000DB681946022014F09FF903461A46FB685D
:1057E0009A60FB689B68002B07D1BB685B6AFA680C
:1057F000526810469847064B03E0FB68BA681A6087
:10580000002318461037BD4680BD00BF00AFFFFF24
:1058100080AEFFFF80B584B000AFF860B9607A60F9
:105820003B60FB68002B01D1064B06E0FB68DB699F
:105830003A687968B8689847034618461037BD46F5
:1058400080BD00BF00AFFFFF80B590B000AFF86033
:10585000B9607A60FB68002B07D0FB681B68002BDF
:1058600003D0FB689B68002B01D14F4B98E0FB688D
:105870001B68DB681A467B6893422AD9FB681B6861
:105880001B69FA68526810469847F863FB6B002B57
:1058900078D1FB681B685B69FA6850687A68B968F8
:1058A0009847F863FB6B002B6ED1FB681B689B6904
:1058B000FA68526807F1100110469847F863FB6BCD
:1058C000002B63D1FB681B689B687B6007F11003AA
:1058D000BB60FB689B687B63FB689B68FA68126827
:1058E000D26813443B63FB681B68DB681A463621A9
:1058F000786B14F01FFDFB681B68DB681A465C219F
:10590000386B14F017FD0023BB631EE07A6BBB6B92
:1059100013441978BA68BB6B13441A78786BBB6B65
:1059200003444A40D2B21A703A6BBB6B13441978E5
:10593000BA68BB6B13441A78386BBB6B03444A409C
:10594000D2B21A70BB6B0133BB63BA6B7B689A42ED
:10595000DCD3FB681B681B69FA68526810469847DD
:10596000F863FB6B002B13D1FB681B685B69FA685B
:105970005068FA681268D268796B9847F863FB6BD5
:10598000002B06E000BF04E000BF02E000BF00E023
:1059900000BF07F1100320211846FFF789FEFB6BBB
:1059A00018464037BD4680BD00AFFFFF80B584B0CC
:1059B00000AFF860B9607A60FB68002B07D0FB6825
:1059C0001B68002B03D0FB689B68002B01D1074BA1
:1059D00008E0FB681B685B69FA6850687A68B96818
:1059E0009847034618461037BD4680BD00AFFFFFFD
:1059F00080B58CB000AF786039607B68002B07D031
:105A00007B681B68002B03D07B689B68002B01D14F
:105A1000294B4CE07B689B687A681268D268134413
:105A2000FB627B681B689B697A68526807F1080112
:105A300010469847B862BB6A002B01D0BB6A36E0BB
:105A40007B681B681B697A68526810469847B86281
:105A5000BB6A002B01D0BB6A29E07B681B685B69CD
:105A60007A6850687A681268D268F96A9847B862AA
:105A7000BB6A002B01D0BB6A19E07B681B685B69BD
:105A80007A6850687A681268926807F10801984746
:105A9000B862BB6A002B01D0BB6A08E07B681B6858
:105AA0009B697A68526839681046984703461846D9
:105AB0003037BD4680BD00BF00AFFFFF80B584B06A
:105AC00000AF78607B68002B07D07B681B68002BD9
:105AD00003D07B689B68002B01D1104B1AE07B68D8
